:020000040800F2
:1000000000500020A1050008050400080D040008A8
:100010000F04000811040008130400080000000089
:1000200000000000000000000000000015040008AF
:100030001704000800000000190400081B04000851
:10004000E9050008E9050008E9050008E9050008D8
:10005000E9050008E9050008E9050008E9050008C8
:10006000E9050008E9050008E9050008E9050008B8
:10007000E9050008E9050008E9050008E9050008A8
:10008000E9050008E9050008E9050008E905000898
:10009000E9050008E9050008E9050008E905000888
:1000A000E9050008E9050008E9050008E905000878
:1000B00025040008E9050008E9050008E90500082D
:1000C000E9050008E9050008E9050008E905000858
:1000D000E9050008E9050008E9050008E905000848
:1000E00035040008E9050008E905000800000000E3
:1000F0000000000000000000000000000000000000
:0C01000000000000000000005FF808F1A3
:10010C0010B5054C237833B9044B13B10448AFF345
:10011C0000800123237010BD4C040020000000005F
:10012C003C19000808B5034B1BB103490348AFF356
:10013C00008008BD00000000500400203C1900089D
:10014C002DE9F04188B0002404940594069407949A
:10015C002D4B9A6942F010029A619A6902F01002D2
:10016C000092009A9A6942F020029A619A6902F010
:10017C0020020192019A9A6942F004029A619A69EA
:10018C0002F004020292029A9A6942F008029A6101
:10019C009B6903F008030393039BDFF87080012233
:1001AC004FF40051404600F0FEFB194E012211465F
:1001BC00304600F0F8FB4FF40053049301250595ED
:1001CC0006950227079704A9404600F0D3FA049538
:1001DC0005950695079704A9304600F0CBFA4FF425
:1001EC00405304930B4B0593069404A90A4800F062
:1001FC00C1FA22462146282000F062FA282000F09D
:10020C0097FA08B0BDE8F0810010024000100140E0
:10021C000008014000002110000C014008B5084BFB
:10022C001B7803B108BD064B01221A70054B002246
:10023C001A704FF40051044800F0BBFBF2E700BF0A
:10024C006A0400206B0400200010014008B5074B25
:10025C00834200D008BD64230D220549054801F0F6
:10026C0021FA0121044800F0A4FBF3E76C04002000
:10027C0004000020B40400200008014072B6FEE720
:10028C0000B591B02822002106A801F08FFA0023B6
:10029C0001930293039304930593012206924FF466
:1002AC00803307930A9202220D920E934FF480131F
:1002BC000F9306A800F0AAFB90B90F23019302211B
:1002CC000291002303934FF480620492059301A8DA
:1002DC0000F0DAFD30B900F0A1FD11B05DF804FBBF
:1002EC00FFF7CCFFFFF7CAFF08B500F09FF9FFF747
:1002FC00C7FFFFF725FF00F0F7F800F0A1F82A4838
:10030C0000F0F2FE294B1B78012B27D0274B1B78D2
:10031C00002BF7D1264B1B78002BF3D1224C204617
:10032C0000F0CDFE234D2B78C3EB431203EB82037D
:10033C00DB00013B9BB2204A1380E360204601F0B6
:10034C0003F8204600F0D0FE2B783033DBB21B4A8A
:10035C0093711371164B01221A70D3E7322000F0FF
:10036C0089F94FF48051164800F016FB30B9114B47
:10037C001B78082B02D801330E4A13704FF400512E
:10038C000F4800F009FB30B90A4B1B78012B02D93E
:10039C00013B084A1370054B00221A704FF40051B0
:1003AC00084800F006FBB1E76C0400206A0400204A
:1003BC006B040020000000206804002004000020D2
:1003CC00000C01400010014082B00A4B9A6942F0C7
:1003DC0001029A619A6902F001020092009ADA69AC
:1003EC0042F08052DA61DB6903F080530193019B88
:1003FC0002B070470010024008B500F023FEFEE783
:10040C00FEE7FEE7FEE7FEE770477047704708B56A
:10041C0000F01EF908BD000008B5024800F09CFE73
:10042C0008BD00BF6C04002008B54FF4805000F0EC
:10043C00C9FA4FF4005000F0C5FA08BD704700002F
:10044C0000B587B0002302930393049305930093A4
:10045C00019315484FF08042026041F61F42426002
:10046C008360C3600361836100F06EFF90B94FF449
:10047C008053029302A90C4800F09EFF68B9002338
:10048C00009301936946084801F016F840B907B08B
:10049C005DF804FBFFF7F2FEE9E7FFF7EFFEEEE78E
:1004AC00FFF7ECFEF3E700BF6C0400200368B3F128
:1004BC00804F00D0704700B583B003F50433DA6980
:1004CC0042F00102DA61DB6903F001030193019B45
:1004DC00002211461C2000F0F3F81C2000F028F933
:1004EC0003B05DF804FB000008B50A480A4B036032
:1004FC004FF4E133436000238360C36003610C223B
:10050C0042618361C36101F09DF800B908BDFFF73A
:10051C00B5FEFBE7B40400200038014010B586B0EE
:10052C00002302930393049305930268174B9A429A
:10053C0001D006B010BD03F558439A6942F48042CD
:10054C009A619A6902F480420092009A9A6942F088
:10055C0004029A619B6903F004030193019B4FF41D
:10056C00007302930223039303230593084C02A9FF
:10057C00204600F0FFF84FF48063029300230393AE
:10058C00049302A9204600F0F5F8D2E700380140A8
:10059C0000080140FFF752FF0B480C490C4A00239E
:1005AC0002E0D458C4500433C4188C42F9D3094A1D
:1005BC00094C002301E013600432A242FBD301F08A
:1005CC00D1F8FFF791FE7047000000204C0400208A
:1005DC00901900084C04002004050020FEE70000E0
:1005EC0010B504460E4B18784FF47A73B3FBF0F346
:1005FC000C4A1068B0FBF3F000F0A8F868B90F2CA7
:10060C0001D901200AE0002221464FF0FF3000F012
:10061C0057F8054B1C60002000E0012010BD00BF06
:10062C0018000020140000201C00002008B5074A08
:10063C00136843F010031360032000F02FF80F2011
:10064C00FFF7CEFFFFF7C0FE002008BD00200240E0
:10065C00034A1168034B1B780B441360704700BFAF
:10066C00FC04002018000020014B1868704700BFE4
:10067C00FC04002038B50446FFF7F6FF0546B4F13C
:10068C00FF3F02D0044B1B781C44FFF7EDFF401BCF
:10069C00A042FAD338BD00BF18000020074AD36827
:1006AC0023F4E0631B041B0C000200F4E060034322
:1006BC0043F0BF6343F40033D360704700ED00E0B8
:1006CC0000B5194BDB68C3F30223C3F1070CBCF173
:1006DC00040F28BF4FF0040C03F1040EBEF1060FFB
:1006EC0018D9033B4FF0FF3E0EFA0CFC21EA0C012B
:1006FC0099400EFA03F322EA0303194300280BDB9B
:10070C000901C9B200F1604000F5614080F80013A6
:10071C005DF804FB0023E5E700F00F000901C9B206
:10072C00024B1954F4E700BF00ED00E014ED00E0BB
:10073C00002807DB00F01F02400901239340024A06
:10074C0042F82030704700BF00E100E00138B0F102
:10075C00807F0BD24FF0E0235861054AF02182F8DC
:10076C0023100020986107221A61704701207047FE
:10077C0000ED00E070B582B00024A446A6E0804DE8
:10078C00AA4210D007D97F4DAA420CD005F580356E
:10079C00AA4208D013E0A5F58015AA4203D005F5AE
:1007AC007025AA4207D18A68002A58D0012A51D054
:1007BC004361082403E0A5F58015AA42F3D0BEF1ED
:1007CC00FF0F4ED80646BEF1FF0F4CD84FEA8C02F5
:1007DC0033680F25954023EA050304FA02F213430C
:1007EC0033604B6813F0805F6ED0674B9A6942F0B0
:1007FC0001029A619B6903F001030193019B4FEA8B
:10080C009C02951C614B53F825600CF003039D0072
:10081C000F23AB4026EA03065D4B984229D003F523
:10082C008063984200F08E8003F58063984200F05C
:10083C008B8003F58063984219D004231AE0CC68AE
:10084C00BDE7CC680434BAE7CC680834B7E7CC68A9
:10085C000C34B4E703610824B1E70024AFE70424A7
:10086C00ADE7061DAFE7ACF108029200B0E7032339
:10087C0000E00023AB4033430232444D45F82230B4
:10088C004B6813F4801F61D0424A936843EA0E030D
:10089C0093604B6813F4001F5ED03E4AD36843EA62
:1008AC000E03D3604B6813F4003F5BD0394A536896
:1008BC0043EA0E0353604B6813F4803F58D0354A1B
:1008CC00136843EA0E0313600CF1010C0A6832FA48
:1008DC000CF353D0012303FA0CF302EA030E33EAB0
:1008EC000202F1D14A68122A3FF649AF122A3FF6AA
:1008FC0066AF01A555F822F0B30700084B080008B5
:10090C005508000867080008CB070008CB0700084B
:10091C00CB070008CB070008CB070008CB07000863
:10092C00CB070008CB070008CB070008CB07000853
:10093C00CB070008CB070008CB0700084F080008BE
:10094C005B080008012395E7022393E7114A93689B
:10095C0023EA0E0393609CE70E4AD36823EA0E0346
:10096C00D3609FE70B4A536823EA0E035360A2E758
:10097C00084A136823EA0E031360A5E702B070BDA2
:10098C000000221000003110001002400000014055
:10099C0000080140000401408368194201D0012085
:1009AC007047002070470AB101617047090401616A
:1009BC007047C36801EA030221EA030141EA0241DC
:1009CC000161704708B5054B5B69034200D108BD56
:1009DC00024B5861FFF722FCF9E700BF000401400D
:1009EC0082B0084B1B68084AA2FB03235B0A00FB7E
:1009FC0003F3019300BF019B5A1E0192002BF9D106
:100A0C0002B0704714000020D34D6210002800F093
:100A1C00F18170B582B00446036813F0010F2CD03D
:100A2C00994B5B6803F00C03042B1DD0964B5B6851
:100A3C0003F00C03082B12D06368B3F5803F41D050
:100A4C00002B55D103F1804303F504331A6822F4CB
:100A5C0080321A601A6822F480221A6037E08A4BBE
:100A6C005B6813F4803FE7D0874B1B6813F4003F9F
:100A7C0003D06368002B00F0BF81236813F0020FD2
:100A8C0075D0814B5B6813F00C0F5FD07E4B5B68AD
:100A9C0003F00C03082B54D02369002B00F08A8040
:100AAC007A4B01221A60FFF7DFFD0546764B1B6877
:100ABC0013F0020F75D1FFF7D7FD401B0228F5D9B3
:100ACC0003209EE1704A136843F48033136063681B
:100ADC0043B3FFF7C9FD05466B4B1B6813F4003F8E
:100AEC00CBD1FFF7C1FD401B6428F5D9032088E169
:100AFC00B3F5A02F09D0644B1A6822F480321A6027
:100B0C001A6822F480221A60E1E703F18043A3F50E
:100B1C003C331A6842F480221A601A6842F480321C
:100B2C001A60D4E7FFF7A0FD0546574B1B6813F47A
:100B3C00003FA2D0FFF798FD401B6428F5D9032095
:100B4C005FE1514B5B6813F4803FA5D14E4B1B68A2
:100B5C0013F0020F03D02369012B40F04F814A4A56
:100B6C00136823F0F803616943EAC1031360236837
:100B7C0013F0080F33D0A369002B5CD0434B012238
:100B8C00C3F88024FFF770FD05463F4B5B6A13F0FA
:100B9C00020F21D1FFF768FD401B0228F5D9032075
:100BAC002FE1394A136823F0F803616943EAC10362
:100BBC001360DCE7354B00221A60FFF755FD054644
:100BCC00314B1B6813F0020FD1D0FFF74DFD401BCA
:100BDC000228F5D9032014E10120FFF701FF236857
:100BEC0013F0040F00F09680274BDB6913F0805F45
:100BFC0034D1254BDA6942F08052DA61DB6903F0BB
:100C0C0080530193019B0125214B1B6813F4807FBA
:100C1C0026D0E368012B3DD0002B53D103F1804348
:100C2C0003F504331A6A22F001021A621A6A22F0DE
:100C3C0004021A6233E0154B0022C3F88024FFF73C
:100C4C0013FD0546104B5B6A13F0020FC7D0FFF77C
:100C5C000BFD401B0228F5D90320D2E00025D3E779
:100C6C000B4A136843F480731360FFF7FDFC0646D0
:100C7C00074B1B6813F4807FCBD1FFF7F5FC801B6F
:100C8C006428F5D90320BCE0001002400000424269
:100C9C00007000405F4A136A43F001031362E3687B
:100CAC0033B3FFF7E1FC06465A4B1B6A13F0020FF5
:100CBC002FD1FFF7D9FC801B41F288339842F3D92E
:100CCC0003209EE0052B09D0524B1A6A22F0010238
:100CDC001A621A6A22F004021A62E0E74D4B1A6A91
:100CEC0042F004021A621A6A42F001021A62D6E752
:100CFC00FFF7BAFC0646474B1B6A13F0020F08D0ED
:100D0C00FFF7B2FC801B41F288339842F3D90320E1
:100D1C0077E0E5B9E369002B72D03E4A526802F0E5
:100D2C000C02082A56D0022B17D03B4B00221A6615
:100D3C00FFF79AFC0446374B1B6813F0007F47D033
:100D4C00FFF792FC001B0228F5D9032059E0314A29
:100D5C00D36923F08053D361DCE72F4B00221A6652
:100D6C00FFF782FC05462B4B1B6813F0007F06D067
:100D7C00FFF77AFC401B0228F5D9032041E0236AD7
:100D8C00B3F5803F1AD023494B6823F47413226ABD
:100D9C00606A024313434B601F4B01221A66FFF734
:100DAC0063FC04461B4B1B6813F0007F0ED1FFF74E
:100DBC005BFC001B0228F5D9032022E0154A53687E
:100DCC0023F40033A1680B435360DCE7002018E0E8
:100DDC00002016E0012B16D00E4B5B6803F480311B
:100DEC00226A914211D103F47013626A93420ED1BC
:100DFC00002006E001207047012002E0012000E005
:100E0C00002002B070BD0120FBE70120F9E70120B2
:100E1C00F7E700BF0010024000004242014B0122E4
:100E2C00DA64704700004242114B5A6802F00C031E
:100E3C00042B18D0082B18D1C2F383430D49C85C7E
:100E4C0012F4803F0BD00A4B5B68C3F340430A4A51
:100E5C00D35C0A4A02FB00F0B0FBF3F07047084B7E
:100E6C0003FB00F07047054870470648704700BF09
:100E7C00001002406C1900087C190008001BB70018
:100E8C0000093D0000127A00002800F0A08070B527
:100E9C000D460446524B1B6803F007038B420BD2E2
:100EAC004F4A136823F007030B431360136803F0D6
:100EBC0007038B4240F08D80236813F0020F17D08C
:100ECC0013F0040F04D0474A536843F4E0635360B3
:100EDC00236813F0080F04D0424A536843F460535C
:100EEC005360404A536823F0F003A1680B435360EE
:100EFC00236813F0010F31D06368012B20D0022B33
:100F0C0025D0384A126812F0020F64D035494A686D
:100F1C0022F0030213434B60FFF7A6FB0646314B4E
:100F2C005B6803F00C036268B3EB820F16D0FFF71B
:100F3C009BFB801B41F288339842F0D9032045E09B
:100F4C00284A126812F4003FE0D101203EE0254A05
:100F5C00126812F0007FD9D1012037E0204B1B68BA
:100F6C0003F00703AB420AD91D4A136823F00703A9
:100F7C002B431360136803F00703AB422DD1236896
:100F8C0013F0040F06D0174A536823F4E063E168AA
:100F9C000B435360236813F0080F07D0114A5368B2
:100FAC0023F46053216943EAC1035360FFF73CFF0C
:100FBC000C4B5B68C3F303130B4AD35CD8400B4B4D
:100FCC0018600B4B1868FFF70BFB002070BD01205D
:100FDC0070470120FAE70120F8E70120F6E700BF8F
:100FEC000020024000100240541900081400002098
:100FFC001C000020014B1868704700BF1400002033
:10100C0008B5FFF7F7FF044B5B68C3F30223034AF1
:10101C00D35CD84008BD00BF001002406419000822
:10102C0008B5FFF7E7FF044B5B68C3F3C223034A21
:10103C00D35CD84008BD00BF001002406419000802
:10104C007047000008B5064B9B6813F0800F00D169
:10105C0008BDFFF7F5FF024B80229A72F8E700BF3C
:10106C000010024010B4036A046A24F00104046204
:10107C00846924F0F00C4CEA021223F00A030B43AF
:10108C008261036210BC704710B4036A046A24F0D6
:10109C0010040462846924F4704C4CEA023223F08C
:1010AC00A00343EA01138261036210BC704783689A
:1010BC0023F070030B4343F007038360704703680E
:1010CC00196A41F21112114208D1196A40F24442D4
:1010DC00114203D11A6822F001021A60012380F830
:1010EC003D3000207047000090F83D30DBB2012B02
:1010FC0027D1022380F83D300268D36843F0010306
:10110C00D3600368114A934210D0B3F1804F0DD0D5
:10111C00A2F59432934209D002F58062934205D035
:10112C001A6842F001021A60002070479A6802F0B7
:10113C000702062A07D01A6842F001021A60002042
:10114C007047012070470020704700BF002C014001
:10115C00704770477047704710B5044603681A69AA
:10116C0012F0020F11D0DA6812F0020F0DD06FF0EE
:10117C0002021A610123037703689B6913F0030FC2
:10118C0070D0FFF7E6FF0023237723681A6912F06B
:10119C00040F12D0DA6812F0040F0ED06FF00402B4
:1011AC001A610223237723689B6913F4407F5FD075
:1011BC002046FFF7CEFF0023237723681A6912F02D
:1011CC00080F12D0DA6812F0080F0ED06FF0080278
:1011DC001A61042323772368DB6913F0030F4ED0C5
:1011EC002046FFF7B6FF0023237723681A6912F015
:1011FC00100F12D0DA6812F0100F0ED06FF0100230
:10120C001A61082323772368DB6913F4407F3DD0F0
:10121C002046FFF79EFF0023237723681A6912F0FC
:10122C00010F03D0DA6812F0010F36D123681A6966
:10123C0012F0800F03D0DA6812F0800F34D12368DB
:10124C001A6912F0400F03D0DA6812F0400F32D155
:10125C0023681A6912F0200F03D0DA6812F0200FFD
:10126C0030D110BDFFF774FF2046FFF773FF8AE7FC
:10127C002046FFF76DFF2046FFF76CFF9BE72046EB
:10128C00FFF766FF2046FFF765FFACE72046FFF748
:10129C005FFF2046FFF75EFFBDE76FF001021A61AA
:1012AC002046FEF7D3FFC1E76FF080021A6120469B
:1012BC0000F039F9C3E76FF040021A612046FFF7DE
:1012CC004AFFC5E76FF020021A61204600F02AF9A8
:1012DC00C7E7000003681B4A90420AD0B0F1804F68
:1012EC0007D0A2F59432904203D002F5806290426E
:1012FC0003D123F070034A681343124A90420AD078
:10130C00B0F1804F07D0A2F59432904203D002F591
:10131C008062904203D123F44073CA68134323F0D4
:10132C0080034A69134303608B68C3620B68836252
:10133C00044B984202D00123436170470B6903634D
:10134C00F9E700BF002C014040B310B5044690F8FB
:10135C003D30F3B1022384F83D30214651F8040BA3
:10136C00FFF7B8FF012384F8463084F83E3084F848
:10137C003F3084F8403084F8413084F8423084F8AF
:10138C00433084F8443084F8453084F83D300020F4
:10139C0010BD80F83C30FFF789F8DBE7012070477F
:1013AC0010B4846824F47F4C42EA03220A4342EAD4
:1013BC000C02826010BC704790F83C30012B78D046
:1013CC0010B50446012380F83C30022380F83D30F0
:1013DC000268936823F47F4323F0770393600B68D0
:1013EC00602B4CD029D8402B54D00CD9502B22D167
:1013FC00CA6849680068FFF735FE50212068FFF77E
:10140C0056FE002005E0202B0DD009D9302B0AD038
:10141C000120012384F83D30002384F83C3010BDBA
:10142C000BB1102B05D119462068FFF740FE0020A8
:10143C00EFE70120EDE70120EBE7B3F5805F34D057
:10144C00B3F5005F0CD1CB684A6889680068FFF778
:10145C00A7FF2268936843F4804393600020D8E789
:10146C00702B24D1CB684A6889680068FFF798FF15
:10147C002268936843F0770393600020C9E7CA6839
:10148C0049680068FFF700FE60212068FFF70FFE37
:10149C000020BEE7CA6849680068FFF7E3FD4021F9
:1014AC002068FFF704FE0020B3E70020B1E701201D
:1014BC00AFE702207047000090F83C30012B2CD095
:1014CC0010B4012380F83C30022380F83D300368CF
:1014DC005A689C6822F0700C0A6842EA0C025A6046
:1014EC0003680F4A93420AD0B3F1804F07D0A2F59C
:1014FC009432934203D002F58062934204D124F0DB
:10150C0080044A6814439C60012380F83D3000231A
:10151C0080F83C30184610BC70470220704700BF62
:10152C00002C01407047704710B5044602681369DF
:10153C0023F44053C1680B4313618368026913435E
:10154C0042691A430168CB6823F4B05323F00C03AF
:10155C001343CB600268536923F4407381690B43D6
:10156C0053610268134B9A4220D0FFF749FD0246A3
:10157C0002EB820202EB820263689B00B2FBF3F285
:10158C000D48A0FB02314909642303FB11231B0105
:10159C003233A0FB03235B0903F0F00202EB0112D0
:1015AC0003F00F03216813448B6010BDFFF738FD67
:1015BC000246DDE7003801401F85EB512DE9F84369
:1015CC0005460F4616469946DDF820802C6824689F
:1015DC0037EA04030CBF4FF0010C4FF0000CB4457C
:1015EC002DD1B8F1FF3FF1D0B8F1000F05D0FFF7C6
:1015FC003BF8A0EB09004045E8D92A6802F10C033E
:10160C0053E8003F23F4D0730C3242E80031002938
:10161C00F3D12A6802F1140353E8003F23F00103CD
:10162C00143242E800310029F3D1202385F84130EF
:10163C0085F84230002385F84030032000E000207C
:10164C00BDE8F88360B310B5044690F8413013B38D
:10165C00242384F841302268D36823F40053D360E8
:10166C002046FFF761FF2268136923F4904313614E
:10167C002268536923F02A0353612268D36843F428
:10168C000053D36000206064202384F8413084F838
:10169C004230606310BD80F84030FEF73FFFD7E763
:1016AC00012070472DE9F04182B01E4690F8413080
:1016BC00DBB2202B4BD104460D46904600294AD074
:1016CC000AB9012044E000234364212380F841300F
:1016DC00FEF7CAFF0746A4F82480A4F82680A36866
:1016EC00B3F5805F02D04FF000080FE02369FBB127
:1016FC004FF000080AE038F8023B2268C3F30803F5
:10170C005360E28C92B2013A92B2E284E38C9BB2C7
:10171C008BB100963B46002280212046FFF74EFFFE
:10172C00D8B9002DE7D015F8012B23685A60E8E7EB
:10173C00A8460025EAE700963B46002240212046B9
:10174C00FFF73CFF58B9202384F8413000E0022019
:10175C0002B0BDE8F0810120FAE70320F8E703208E
:10176C00F6E7000070B50D4E0D4D761BB61006D089
:10177C00002455F8043B01349847A642F9D1094E90
:10178C00094D00F0D5F8761BB61006D0002455F89C
:10179C00043B01349847A642F9D170BD8419000866
:1017AC00841900088C19000884190008830730B5C7
:1017BC0048D0541E002A3FD00346CAB201E0013C77
:1017CC003AD303F8012B9D07F9D1032C2DD9CDB2B7
:1017DC0045EA05250F2C45EA054536D9A4F110023A
:1017EC0022F00F0C03F1200EE6444FEA121C03F119
:1017FC00100242E9045542E9025510327245F8D103
:10180C000CF1010214F00C0F03EB021204F00F0C9C
:10181C0013D0ACF1040323F003030433134442F854
:10182C00045B9342FBD10CF003042CB1CAB21C44F0
:10183C0003F8012B9C42FBD130BD64461346002CAF
:10184C00F4D1F9E703461446BFE71A46A446E0E78D
:10185C00024B13B1024800F005B8704700000000BD
:10186C007D180008002301461A46184600F01AB8E5
:10187C0038B5084B084D5B1B9C1007D0043B1D442E
:10188C00013C55F804399847002CF9D1BDE8384093
:10189C0000F054B8901900088C190008704700BF6C
:1018AC00704700BF2DE9F047DFF87CA00646DAF858
:1018BC00000098460F469146FFF7F0FF1B4B1B6844
:1018CC00D3F8484124B365681F2D26DC5EB96B1C28
:1018DC000235DAF80000636044F82570FFF7E0FF8A
:1018EC000020BDE8F087012304EB8501C1F8889046
:1018FC00D4F88821AB401A43022EC4F88821C1F8D1
:10190C000881E4D1D4F88C211343C4F88C31DEE780
:10191C0003F5A674C3F84841D5E7DAF80000FFF7E1
:10192C00BFFF4FF0FF30DCE74804002080190008AF
:10193C00F8B500BFF8BC08BC9E467047F8B500BFB0
:08194C00F8BC08BC9E46704780
:10195400000000000000000001020304060708095B
:10196400000000000102030402030405060708093D
:101974000A0B0C0D0E0F10100102000020000020B5
:081984005D18000831010008A4
:04198C000D01000841
:10199000010000004D6F646531203130306D730AF5
:1019A000000000000024F40001000000100000000E
:1019B000000000000C03002074030020DC03002062
:1019C0000000000000000000000000000000000017
:1019D0000000000000000000000000000000000007
:1019E00000000000000000000000000000000000F7
:1019F00000000000000000000000000000000000E7
:101A000000000000000000000000000000000000D6
:101A100000000000000000000000000000000000C6
:101A200000000000000000000000000000000000B6
:101A300000000000000000000000000000000000A6
:101A40000000000000000000000000000000000096
:101A50000000000000000000010000000000000085
:101A60000E33CDAB34126DE6ECDE05000B0000004A
:101A70000000000000000000000000000000000066
:101A80000000000000000000000000000000000056
:101A90000000000000000000000000000000000046
:101AA0000000000000000000000000000000000036
:0C1DD000000000000000000000050020E2
:04000005080005A149
:00000001FF
